{
  "contracts/UBI.sol": {
    "UBI": {
      "abi": [
        {
          "inputs": [],
          "stateMutability": "nonpayable",
          "type": "constructor"
        },
        {
          "stateMutability": "payable",
          "type": "fallback"
        },
        {
          "inputs": [
            {
              "internalType": "address",
              "name": "bidder",
              "type": "address"
            },
            {
              "internalType": "uint256",
              "name": "amount",
              "type": "uint256"
            }
          ],
          "name": "addBidder",
          "outputs": [],
          "stateMutability": "nonpayable",
          "type": "function"
        },
        {
          "inputs": [],
          "name": "addy",
          "outputs": [
            {
              "internalType": "address payable",
              "name": "",
              "type": "address"
            }
          ],
          "stateMutability": "view",
          "type": "function"
        },
        {
          "inputs": [
            {
              "internalType": "address",
              "name": "",
              "type": "address"
            }
          ],
          "name": "bidders",
          "outputs": [
            {
              "internalType": "bool",
              "name": "",
              "type": "bool"
            }
          ],
          "stateMutability": "view",
          "type": "function"
        },
        {
          "inputs": [],
          "name": "claim",
          "outputs": [],
          "stateMutability": "nonpayable",
          "type": "function"
        },
        {
          "inputs": [],
          "name": "claimable",
          "outputs": [
            {
              "internalType": "bool",
              "name": "",
              "type": "bool"
            }
          ],
          "stateMutability": "view",
          "type": "function"
        },
        {
          "inputs": [],
          "name": "eachGets",
          "outputs": [
            {
              "internalType": "uint256",
              "name": "",
              "type": "uint256"
            }
          ],
          "stateMutability": "view",
          "type": "function"
        },
        {
          "inputs": [
            {
              "internalType": "address",
              "name": "winner",
              "type": "address"
            }
          ],
          "name": "endGame",
          "outputs": [],
          "stateMutability": "nonpayable",
          "type": "function"
        },
        {
          "inputs": [],
          "name": "game",
          "outputs": [
            {
              "internalType": "address",
              "name": "",
              "type": "address"
            }
          ],
          "stateMutability": "view",
          "type": "function"
        },
        {
          "inputs": [],
          "name": "totalAmount",
          "outputs": [
            {
              "internalType": "uint256",
              "name": "",
              "type": "uint256"
            }
          ],
          "stateMutability": "view",
          "type": "function"
        },
        {
          "inputs": [],
          "name": "totalBidders",
          "outputs": [
            {
              "internalType": "uint256",
              "name": "",
              "type": "uint256"
            }
          ],
          "stateMutability": "view",
          "type": "function"
        }
      ],
      "evm": {
        "bytecode": {
          "linkReferences": {},
          "object": "608060405234801561001057600080fd5b50600380546001600160a01b03191633179055610647806100326000396000f3fe6080604052600436106100915760003560e01c8063a1bd721f11610059578063a1bd721f14610135578063af38d7571461014a578063c3fe3e281461016c578063de71bf0714610181578063fcc8f7931461019657610091565b80631a39d8ef146100935780632a035b6c146100be57806330840a3e146100de578063351c7d35146100fe5780634e71d92d14610120575b005b34801561009f57600080fd5b506100a86101b6565b6040516100b591906105a3565b60405180910390f35b3480156100ca57600080fd5b506100916100d936600461047c565b6101bc565b3480156100ea57600080fd5b506100916100f936600461049d565b610236565b34801561010a57600080fd5b506101136102ca565b6040516100b591906104c6565b34801561012c57600080fd5b506100916102ce565b34801561014157600080fd5b506100a861040f565b34801561015657600080fd5b5061015f610426565b6040516100b591906104da565b34801561017857600080fd5b50610113610436565b34801561018d57600080fd5b506100a8610445565b3480156101a257600080fd5b5061015f6101b136600461047c565b61044b565b60025481565b6003546001600160a01b031633146101ef5760405162461bcd60e51b81526004016101e69061051c565b60405180910390fd5b6001600160a01b0381166000908152602081905260409020805460ff191690556003805460ff60a01b1916600160a01b1790556001805461023091906105e4565b60015550565b6003546001600160a01b031633146102605760405162461bcd60e51b81526004016101e69061051c565b6001600160a01b03821660009081526020819052604090205460ff166102b5576001600160a01b0382166000908152602081905260409020805460ff1916600190811790915580546102b1916105ac565b6001555b806002546102c391906105ac565b6002555050565b3090565b6003546001600160a01b031633146102f85760405162461bcd60e51b81526004016101e69061051c565b600354600160a01b900460ff166103215760405162461bcd60e51b81526004016101e690610576565b3260009081526020819052604090205460ff166103505760405162461bcd60e51b81526004016101e6906104e5565b326000908152602081905260409020805460ff1916905561036f6102ca565b6001600160a01b03163161038161040f565b11156103ce57326108fc6103936102ca565b6001600160a01b0316319081150290604051600060405180830381858888f193505050501580156103c8573d6000803e3d6000fd5b5061040d565b326108fc6103da61040f565b6040518115909202916000818181858888f1935050505061040d5760405162461bcd60e51b81526004016101e690610551565b565b600060015460025461042191906105c4565b905090565b600354600160a01b900460ff1681565b6003546001600160a01b031681565b60015481565b60006020819052908152604090205460ff1681565b80356001600160a01b038116811461047757600080fd5b919050565b60006020828403121561048d578081fd5b61049682610460565b9392505050565b600080604083850312156104af578081fd5b6104b883610460565b946020939093013593505050565b6001600160a01b0391909116815260200190565b901515815260200190565b6020808252601b908201527f746865726573206e6f7468696e6720666f7220796f7520686572650000000000604082015260600190565b6020808252818101527f6f6e6c79207468652067616d6520697473656c662063616e20646f2074686973604082015260600190565b6020808252600b908201526a1cd95b990819985a5b195960aa1b604082015260600190565b60208082526013908201527219d85b59481a5cdb89dd081bdd995c881e595d606a1b604082015260600190565b90815260200190565b600082198211156105bf576105bf6105fb565b500190565b6000826105df57634e487b7160e01b81526012600452602481fd5b500490565b6000828210156105f6576105f66105fb565b500390565b634e487b7160e01b600052601160045260246000fdfea26469706673582212203e26493e3e8380de735f689eb137fb59e1baaecb194597da22cd7a6c67208b5d64736f6c63430008010033",
          "opcodes": "PUSH1 0x80 PUSH1 0x40 MSTORE CALLVALUE DUP1 ISZERO PUSH2 0x10 JUMPI PUSH1 0x0 DUP1 REVERT JUMPDEST POP PUSH1 0x3 DUP1 SLOAD PUSH1 0x1 PUSH1 0x1 PUSH1 0xA0 SHL SUB NOT AND CALLER OR SWAP1 SSTORE PUSH2 0x647 DUP1 PUSH2 0x32 PUSH1 0x0 CODECOPY PUSH1 0x0 RETURN INVALID PUSH1 0x80 PUSH1 0x40 MSTORE PUSH1 0x4 CALLDATASIZE LT PUSH2 0x91 JUMPI PUSH1 0x0 CALLDATALOAD PUSH1 0xE0 SHR DUP1 PUSH4 0xA1BD721F GT PUSH2 0x59 JUMPI DUP1 PUSH4 0xA1BD721F EQ PUSH2 0x135 JUMPI DUP1 PUSH4 0xAF38D757 EQ PUSH2 0x14A JUMPI DUP1 PUSH4 0xC3FE3E28 EQ PUSH2 0x16C JUMPI DUP1 PUSH4 0xDE71BF07 EQ PUSH2 0x181 JUMPI DUP1 PUSH4 0xFCC8F793 EQ PUSH2 0x196 JUMPI PUSH2 0x91 JUMP JUMPDEST DUP1 PUSH4 0x1A39D8EF EQ PUSH2 0x93 JUMPI DUP1 PUSH4 0x2A035B6C EQ PUSH2 0xBE JUMPI DUP1 PUSH4 0x30840A3E EQ PUSH2 0xDE JUMPI DUP1 PUSH4 0x351C7D35 EQ PUSH2 0xFE JUMPI DUP1 PUSH4 0x4E71D92D EQ PUSH2 0x120 JUMPI JUMPDEST STOP JUMPDEST CALLVALUE DUP1 ISZERO PUSH2 0x9F JUMPI PUSH1 0x0 DUP1 REVERT JUMPDEST POP PUSH2 0xA8 PUSH2 0x1B6 JUMP JUMPDEST PUSH1 0x40 MLOAD PUSH2 0xB5 SWAP2 SWAP1 PUSH2 0x5A3 JUMP JUMPDEST PUSH1 0x40 MLOAD DUP1 SWAP2 SUB SWAP1 RETURN JUMPDEST CALLVALUE DUP1 ISZERO PUSH2 0xCA JUMPI PUSH1 0x0 DUP1 REVERT JUMPDEST POP PUSH2 0x91 PUSH2 0xD9 CALLDATASIZE PUSH1 0x4 PUSH2 0x47C JUMP JUMPDEST PUSH2 0x1BC JUMP JUMPDEST CALLVALUE DUP1 ISZERO PUSH2 0xEA JUMPI PUSH1 0x0 DUP1 REVERT JUMPDEST POP PUSH2 0x91 PUSH2 0xF9 CALLDATASIZE PUSH1 0x4 PUSH2 0x49D JUMP JUMPDEST PUSH2 0x236 JUMP JUMPDEST CALLVALUE DUP1 ISZERO PUSH2 0x10A JUMPI PUSH1 0x0 DUP1 REVERT JUMPDEST POP PUSH2 0x113 PUSH2 0x2CA JUMP JUMPDEST PUSH1 0x40 MLOAD PUSH2 0xB5 SWAP2 SWAP1 PUSH2 0x4C6 JUMP JUMPDEST CALLVALUE DUP1 ISZERO PUSH2 0x12C JUMPI PUSH1 0x0 DUP1 REVERT JUMPDEST POP PUSH2 0x91 PUSH2 0x2CE JUMP JUMPDEST CALLVALUE DUP1 ISZERO PUSH2 0x141 JUMPI PUSH1 0x0 DUP1 REVERT JUMPDEST POP PUSH2 0xA8 PUSH2 0x40F JUMP JUMPDEST CALLVALUE DUP1 ISZERO PUSH2 0x156 JUMPI PUSH1 0x0 DUP1 REVERT JUMPDEST POP PUSH2 0x15F PUSH2 0x426 JUMP JUMPDEST PUSH1 0x40 MLOAD PUSH2 0xB5 SWAP2 SWAP1 PUSH2 0x4DA JUMP JUMPDEST CALLVALUE DUP1 ISZERO PUSH2 0x178 JUMPI PUSH1 0x0 DUP1 REVERT JUMPDEST POP PUSH2 0x113 PUSH2 0x436 JUMP JUMPDEST CALLVALUE DUP1 ISZERO PUSH2 0x18D JUMPI PUSH1 0x0 DUP1 REVERT JUMPDEST POP PUSH2 0xA8 PUSH2 0x445 JUMP JUMPDEST CALLVALUE DUP1 ISZERO PUSH2 0x1A2 JUMPI PUSH1 0x0 DUP1 REVERT JUMPDEST POP PUSH2 0x15F PUSH2 0x1B1 CALLDATASIZE PUSH1 0x4 PUSH2 0x47C JUMP JUMPDEST PUSH2 0x44B JUMP JUMPDEST PUSH1 0x2 SLOAD DUP2 JUMP JUMPDEST PUSH1 0x3 SLOAD PUSH1 0x1 PUSH1 0x1 PUSH1 0xA0 SHL SUB AND CALLER EQ PUSH2 0x1EF JUMPI PUSH1 0x40 MLOAD PUSH3 0x461BCD PUSH1 0xE5 SHL DUP2 MSTORE PUSH1 0x4 ADD PUSH2 0x1E6 SWAP1 PUSH2 0x51C JUMP JUMPDEST PUSH1 0x40 MLOAD DUP1 SWAP2 SUB SWAP1 REVERT JUMPDEST PUSH1 0x1 PUSH1 0x1 PUSH1 0xA0 SHL SUB DUP2 AND PUSH1 0x0 SWAP1 DUP2 MSTORE PUSH1 0x20 DUP2 SWAP1 MSTORE PUSH1 0x40 SWAP1 KECCAK256 DUP1 SLOAD PUSH1 0xFF NOT AND SWAP1 SSTORE PUSH1 0x3 DUP1 SLOAD PUSH1 0xFF PUSH1 0xA0 SHL NOT AND PUSH1 0x1 PUSH1 0xA0 SHL OR SWAP1 SSTORE PUSH1 0x1 DUP1 SLOAD PUSH2 0x230 SWAP2 SWAP1 PUSH2 0x5E4 JUMP JUMPDEST PUSH1 0x1 SSTORE POP JUMP JUMPDEST PUSH1 0x3 SLOAD PUSH1 0x1 PUSH1 0x1 PUSH1 0xA0 SHL SUB AND CALLER EQ PUSH2 0x260 JUMPI PUSH1 0x40 MLOAD PUSH3 0x461BCD PUSH1 0xE5 SHL DUP2 MSTORE PUSH1 0x4 ADD PUSH2 0x1E6 SWAP1 PUSH2 0x51C JUMP JUMPDEST PUSH1 0x1 PUSH1 0x1 PUSH1 0xA0 SHL SUB DUP3 AND PUSH1 0x0 SWAP1 DUP2 MSTORE PUSH1 0x20 DUP2 SWAP1 MSTORE PUSH1 0x40 SWAP1 KECCAK256 SLOAD PUSH1 0xFF AND PUSH2 0x2B5 JUMPI PUSH1 0x1 PUSH1 0x1 PUSH1 0xA0 SHL SUB DUP3 AND PUSH1 0x0 SWAP1 DUP2 MSTORE PUSH1 0x20 DUP2 SWAP1 MSTORE PUSH1 0x40 SWAP1 KECCAK256 DUP1 SLOAD PUSH1 0xFF NOT AND PUSH1 0x1 SWAP1 DUP2 OR SWAP1 SWAP2 SSTORE DUP1 SLOAD PUSH2 0x2B1 SWAP2 PUSH2 0x5AC JUMP JUMPDEST PUSH1 0x1 SSTORE JUMPDEST DUP1 PUSH1 0x2 SLOAD PUSH2 0x2C3 SWAP2 SWAP1 PUSH2 0x5AC JUMP JUMPDEST PUSH1 0x2 SSTORE POP POP JUMP JUMPDEST ADDRESS SWAP1 JUMP JUMPDEST PUSH1 0x3 SLOAD PUSH1 0x1 PUSH1 0x1 PUSH1 0xA0 SHL SUB AND CALLER EQ PUSH2 0x2F8 JUMPI PUSH1 0x40 MLOAD PUSH3 0x461BCD PUSH1 0xE5 SHL DUP2 MSTORE PUSH1 0x4 ADD PUSH2 0x1E6 SWAP1 PUSH2 0x51C JUMP JUMPDEST PUSH1 0x3 SLOAD PUSH1 0x1 PUSH1 0xA0 SHL SWAP1 DIV PUSH1 0xFF AND PUSH2 0x321 JUMPI PUSH1 0x40 MLOAD PUSH3 0x461BCD PUSH1 0xE5 SHL DUP2 MSTORE PUSH1 0x4 ADD PUSH2 0x1E6 SWAP1 PUSH2 0x576 JUMP JUMPDEST ORIGIN PUSH1 0x0 SWAP1 DUP2 MSTORE PUSH1 0x20 DUP2 SWAP1 MSTORE PUSH1 0x40 SWAP1 KECCAK256 SLOAD PUSH1 0xFF AND PUSH2 0x350 JUMPI PUSH1 0x40 MLOAD PUSH3 0x461BCD PUSH1 0xE5 SHL DUP2 MSTORE PUSH1 0x4 ADD PUSH2 0x1E6 SWAP1 PUSH2 0x4E5 JUMP JUMPDEST ORIGIN PUSH1 0x0 SWAP1 DUP2 MSTORE PUSH1 0x20 DUP2 SWAP1 MSTORE PUSH1 0x40 SWAP1 KECCAK256 DUP1 SLOAD PUSH1 0xFF NOT AND SWAP1 SSTORE PUSH2 0x36F PUSH2 0x2CA JUMP JUMPDEST PUSH1 0x1 PUSH1 0x1 PUSH1 0xA0 SHL SUB AND BALANCE PUSH2 0x381 PUSH2 0x40F JUMP JUMPDEST GT ISZERO PUSH2 0x3CE JUMPI ORIGIN PUSH2 0x8FC PUSH2 0x393 PUSH2 0x2CA JUMP JUMPDEST PUSH1 0x1 PUSH1 0x1 PUSH1 0xA0 SHL SUB AND BALANCE SWAP1 DUP2 ISZERO MUL SWAP1 PUSH1 0x40 MLOAD PUSH1 0x0 PUSH1 0x40 MLOAD DUP1 DUP4 SUB DUP2 DUP6 DUP9 DUP9 CALL SWAP4 POP POP POP POP ISZERO DUP1 ISZERO PUSH2 0x3C8 JUMPI RETURNDATASIZE PUSH1 0x0 DUP1 RETURNDATACOPY RETURNDATASIZE PUSH1 0x0 REVERT JUMPDEST POP PUSH2 0x40D JUMP JUMPDEST ORIGIN PUSH2 0x8FC PUSH2 0x3DA PUSH2 0x40F JUMP JUMPDEST PUSH1 0x40 MLOAD DUP2 ISZERO SWAP1 SWAP3 MUL SWAP2 PUSH1 0x0 DUP2 DUP2 DUP2 DUP6 DUP9 DUP9 CALL SWAP4 POP POP POP POP PUSH2 0x40D JUMPI PUSH1 0x40 MLOAD PUSH3 0x461BCD PUSH1 0xE5 SHL DUP2 MSTORE PUSH1 0x4 ADD PUSH2 0x1E6 SWAP1 PUSH2 0x551 JUMP JUMPDEST JUMP JUMPDEST PUSH1 0x0 PUSH1 0x1 SLOAD PUSH1 0x2 SLOAD PUSH2 0x421 SWAP2 SWAP1 PUSH2 0x5C4 JUMP JUMPDEST SWAP1 POP SWAP1 JUMP JUMPDEST PUSH1 0x3 SLOAD PUSH1 0x1 PUSH1 0xA0 SHL SWAP1 DIV PUSH1 0xFF AND DUP2 JUMP JUMPDEST PUSH1 0x3 SLOAD PUSH1 0x1 PUSH1 0x1 PUSH1 0xA0 SHL SUB AND DUP2 JUMP JUMPDEST PUSH1 0x1 SLOAD DUP2 JUMP JUMPDEST PUSH1 0x0 PUSH1 0x20 DUP2 SWAP1 MSTORE SWAP1 DUP2 MSTORE PUSH1 0x40 SWAP1 KECCAK256 SLOAD PUSH1 0xFF AND DUP2 JUMP JUMPDEST DUP1 CALLDATALOAD PUSH1 0x1 PUSH1 0x1 PUSH1 0xA0 SHL SUB DUP2 AND DUP2 EQ PUSH2 0x477 JUMPI PUSH1 0x0 DUP1 REVERT JUMPDEST SWAP2 SWAP1 POP JUMP JUMPDEST PUSH1 0x0 PUSH1 0x20 DUP3 DUP5 SUB SLT ISZERO PUSH2 0x48D JUMPI DUP1 DUP2 REVERT JUMPDEST PUSH2 0x496 DUP3 PUSH2 0x460 JUMP JUMPDEST SWAP4 SWAP3 POP POP POP JUMP JUMPDEST PUSH1 0x0 DUP1 PUSH1 0x40 DUP4 DUP6 SUB SLT ISZERO PUSH2 0x4AF JUMPI DUP1 DUP2 REVERT JUMPDEST PUSH2 0x4B8 DUP4 PUSH2 0x460 JUMP JUMPDEST SWAP5 PUSH1 0x20 SWAP4 SWAP1 SWAP4 ADD CALLDATALOAD SWAP4 POP POP POP JUMP JUMPDEST PUSH1 0x1 PUSH1 0x1 PUSH1 0xA0 SHL SUB SWAP2 SWAP1 SWAP2 AND DUP2 MSTORE PUSH1 0x20 ADD SWAP1 JUMP JUMPDEST SWAP1 ISZERO ISZERO DUP2 MSTORE PUSH1 0x20 ADD SWAP1 JUMP JUMPDEST PUSH1 0x20 DUP1 DUP3 MSTORE PUSH1 0x1B SWAP1 DUP3 ADD MSTORE PUSH32 0x746865726573206E6F7468696E6720666F7220796F7520686572650000000000 PUSH1 0x40 DUP3 ADD MSTORE PUSH1 0x60 ADD SWAP1 JUMP JUMPDEST PUSH1 0x20 DUP1 DUP3 MSTORE DUP2 DUP2 ADD MSTORE PUSH32 0x6F6E6C79207468652067616D6520697473656C662063616E20646F2074686973 PUSH1 0x40 DUP3 ADD MSTORE PUSH1 0x60 ADD SWAP1 JUMP JUMPDEST PUSH1 0x20 DUP1 DUP3 MSTORE PUSH1 0xB SWAP1 DUP3 ADD MSTORE PUSH11 0x1CD95B990819985A5B1959 PUSH1 0xAA SHL PUSH1 0x40 DUP3 ADD MSTORE PUSH1 0x60 ADD SWAP1 JUMP JUMPDEST PUSH1 0x20 DUP1 DUP3 MSTORE PUSH1 0x13 SWAP1 DUP3 ADD MSTORE PUSH19 0x19D85B59481A5CDB89DD081BDD995C881E595D PUSH1 0x6A SHL PUSH1 0x40 DUP3 ADD MSTORE PUSH1 0x60 ADD SWAP1 JUMP JUMPDEST SWAP1 DUP2 MSTORE PUSH1 0x20 ADD SWAP1 JUMP JUMPDEST PUSH1 0x0 DUP3 NOT DUP3 GT ISZERO PUSH2 0x5BF JUMPI PUSH2 0x5BF PUSH2 0x5FB JUMP JUMPDEST POP ADD SWAP1 JUMP JUMPDEST PUSH1 0x0 DUP3 PUSH2 0x5DF JUMPI PUSH4 0x4E487B71 PUSH1 0xE0 SHL DUP2 MSTORE PUSH1 0x12 PUSH1 0x4 MSTORE PUSH1 0x24 DUP2 REVERT JUMPDEST POP DIV SWAP1 JUMP JUMPDEST PUSH1 0x0 DUP3 DUP3 LT ISZERO PUSH2 0x5F6 JUMPI PUSH2 0x5F6 PUSH2 0x5FB JUMP JUMPDEST POP SUB SWAP1 JUMP JUMPDEST PUSH4 0x4E487B71 PUSH1 0xE0 SHL PUSH1 0x0 MSTORE PUSH1 0x11 PUSH1 0x4 MSTORE PUSH1 0x24 PUSH1 0x0 REVERT INVALID LOG2 PUSH5 0x6970667358 0x22 SLT KECCAK256 RETURNDATACOPY 0x26 0x49 RETURNDATACOPY RETURNDATACOPY DUP4 DUP1 0xDE PUSH20 0x5F689EB137FB59E1BAAECB194597DA22CD7A6C67 KECCAK256 DUP12 0x5D PUSH5 0x736F6C6343 STOP ADDMOD ADD STOP CALLER "
        },
        "methodIdentifiers": {
          "addBidder(address,uint256)": "30840a3e",
          "addy()": "351c7d35",
          "bidders(address)": "fcc8f793",
          "claim()": "4e71d92d",
          "claimable()": "af38d757",
          "eachGets()": "a1bd721f",
          "endGame(address)": "2a035b6c",
          "game()": "c3fe3e28",
          "totalAmount()": "1a39d8ef",
          "totalBidders()": "de71bf07"
        }
      }
    }
  }
}