{
  "contracts/Greenhole.sol": {
    "Greenhole": {
      "abi": [
        {
          "inputs": [],
          "stateMutability": "nonpayable",
          "type": "constructor"
        },
        {
          "anonymous": false,
          "inputs": [
            {
              "indexed": false,
              "internalType": "uint256",
              "name": "amount",
              "type": "uint256"
            },
            {
              "indexed": false,
              "internalType": "address",
              "name": "newLeader",
              "type": "address"
            }
          ],
          "name": "NewBet",
          "type": "event"
        },
        {
          "anonymous": false,
          "inputs": [
            {
              "indexed": false,
              "internalType": "uint256",
              "name": "amount",
              "type": "uint256"
            },
            {
              "indexed": false,
              "internalType": "address",
              "name": "creator",
              "type": "address"
            },
            {
              "indexed": false,
              "internalType": "address",
              "name": "ubi",
              "type": "address"
            }
          ],
          "name": "NewGameStarted",
          "type": "event"
        },
        {
          "anonymous": false,
          "inputs": [
            {
              "indexed": false,
              "internalType": "uint256",
              "name": "amount",
              "type": "uint256"
            },
            {
              "indexed": false,
              "internalType": "address",
              "name": "winner",
              "type": "address"
            }
          ],
          "name": "Winrar",
          "type": "event"
        },
        {
          "inputs": [],
          "name": "bet",
          "outputs": [],
          "stateMutability": "payable",
          "type": "function"
        },
        {
          "inputs": [
            {
              "internalType": "uint256",
              "name": "index",
              "type": "uint256"
            }
          ],
          "name": "claimUBI",
          "outputs": [],
          "stateMutability": "nonpayable",
          "type": "function"
        },
        {
          "inputs": [],
          "name": "currentBet",
          "outputs": [
            {
              "internalType": "uint256",
              "name": "",
              "type": "uint256"
            }
          ],
          "stateMutability": "view",
          "type": "function"
        },
        {
          "inputs": [],
          "name": "currentGame",
          "outputs": [
            {
              "internalType": "bool",
              "name": "",
              "type": "bool"
            }
          ],
          "stateMutability": "view",
          "type": "function"
        },
        {
          "inputs": [],
          "name": "currentLeader",
          "outputs": [
            {
              "internalType": "address",
              "name": "",
              "type": "address"
            }
          ],
          "stateMutability": "view",
          "type": "function"
        },
        {
          "inputs": [],
          "name": "currentUBI",
          "outputs": [
            {
              "internalType": "contract UBI",
              "name": "",
              "type": "address"
            }
          ],
          "stateMutability": "view",
          "type": "function"
        },
        {
          "inputs": [],
          "name": "feeTo",
          "outputs": [
            {
              "internalType": "address",
              "name": "",
              "type": "address"
            }
          ],
          "stateMutability": "view",
          "type": "function"
        },
        {
          "inputs": [],
          "name": "lastBet",
          "outputs": [
            {
              "internalType": "uint256",
              "name": "",
              "type": "uint256"
            }
          ],
          "stateMutability": "view",
          "type": "function"
        },
        {
          "inputs": [],
          "name": "nextMinimumBet",
          "outputs": [
            {
              "internalType": "uint256",
              "name": "",
              "type": "uint256"
            }
          ],
          "stateMutability": "view",
          "type": "function"
        },
        {
          "inputs": [],
          "name": "previousWinner",
          "outputs": [
            {
              "internalType": "address",
              "name": "",
              "type": "address"
            }
          ],
          "stateMutability": "view",
          "type": "function"
        },
        {
          "inputs": [
            {
              "internalType": "address",
              "name": "destination",
              "type": "address"
            }
          ],
          "name": "setFeeTo",
          "outputs": [],
          "stateMutability": "nonpayable",
          "type": "function"
        },
        {
          "inputs": [
            {
              "internalType": "uint256",
              "name": "",
              "type": "uint256"
            }
          ],
          "name": "ubis",
          "outputs": [
            {
              "internalType": "contract UBI",
              "name": "",
              "type": "address"
            }
          ],
          "stateMutability": "view",
          "type": "function"
        },
        {
          "inputs": [],
          "name": "win",
          "outputs": [],
          "stateMutability": "nonpayable",
          "type": "function"
        }
      ],
      "evm": {
        "bytecode": {
          "linkReferences": {},
          "object": "608060405234801561001057600080fd5b5060008054336001600160a01b0319918216811783556001805490921617905561107890819061004090396000f3fe6080604052600436106100c25760003560e01c80637801f8421161007f578063ac4bd53a11610059578063ac4bd53a146101bf578063d1c9a3fe146101d4578063d504cb65146101e9578063f46901ed146101fe576100c2565b80637801f84214610168578063815971181461018a578063a80ad9c81461019f576100c2565b8063017e7e58146100c757806311610c25146100f2578063473ca96c146100fc5780635c6059ee1461011157806360b663bb1461012657806371aba47614610148575b600080fd5b3480156100d357600080fd5b506100dc61021e565b6040516100e99190610815565b60405180910390f35b6100fa61022d565b005b34801561010857600080fd5b506100fa610442565b34801561011d57600080fd5b506100dc610585565b34801561013257600080fd5b5061013b610594565b6040516100e99190610842565b34801561015457600080fd5b506100fa6101633660046107fd565b61059d565b34801561017457600080fd5b5061017d6105fa565b6040516100e991906108ee565b34801561019657600080fd5b5061017d610600565b3480156101ab57600080fd5b506100dc6101ba3660046107fd565b61062b565b3480156101cb57600080fd5b506100dc610655565b3480156101e057600080fd5b506100dc610664565b3480156101f557600080fd5b5061017d6106b0565b34801561020a57600080fd5b506100fa6102193660046107be565b6106b6565b6001546001600160a01b031681565b610235610600565b34101561025d5760405162461bcd60e51b815260040161025490610895565b60405180910390fd5b60055460ff1661026f5761026f610702565b60015434906001600160a01b03166108fc61028c6103e884610945565b6040518115909202916000818181858888f193505050501580156102b4573d6000803e3d6000fd5b5060006102c2601483610945565b6102cd906007610965565b90506102d7610664565b6001600160a01b03166330840a3e33836040518363ffffffff1660e01b8152600401610304929190610829565b600060405180830381600087803b15801561031e57600080fd5b505af1158015610332573d6000803e3d6000fd5b5050505061033e610664565b6001600160a01b031663351c7d356040518163ffffffff1660e01b815260040160206040518083038186803b15801561037657600080fd5b505afa15801561038a573d6000803e3d6000fd5b505050506040513d601f19601f820116820180604052508101906103ae91906107e1565b6001600160a01b03166108fc829081150290604051600060405180830381858888f193505050501580156103e6573d6000803e3d6000fd5b50600382905542600455600280546001600160a01b031916339081179091556040517f189ba8d04ab0c61f5498ae9bd2b2295cd60d6fc895cac86feeb1ee28d1b782d291610436918591906108f7565b60405180910390a15050565b60045461045190610e1061092d565b4210156104705760405162461bcd60e51b81526004016102549061084d565b6002546001600160a01b0316331461048757600080fd5b7f92bba05f468e20892603ae1a108c6516b3f0d4884204c513d01527989868acd547336040516104b89291906108f7565b60405180910390a160405133904780156108fc02916000818181858888f193505050501580156104ec573d6000803e3d6000fd5b506104f5610664565b6001600160a01b0316632a035b6c336040518263ffffffff1660e01b81526004016105209190610815565b600060405180830381600087803b15801561053a57600080fd5b505af115801561054e573d6000803e3d6000fd5b50506005805460ff191690555050600060038190558054336001600160a01b03199182168117909255600180549091169091179055565b6000546001600160a01b031681565b60055460ff1681565b6105a5610664565b6001600160a01b0316634e71d92d6040518163ffffffff1660e01b8152600401600060405180830381600087803b1580156105df57600080fd5b505af11580156105f3573d6000803e3d6000fd5b5050505050565b60045481565b60055460009060ff16156106235760035461061c90600161092d565b9050610628565b506103e85b90565b6006818154811061063b57600080fd5b6000918252602090912001546001600160a01b0316905081565b6002546001600160a01b031681565b600680546000919061067890600190610984565b8154811061069657634e487b7160e01b600052603260045260246000fd5b6000918252602090912001546001600160a01b0316905090565b60035481565b6000546001600160a01b031633146106e05760405162461bcd60e51b8152600401610254906108b7565b600180546001600160a01b0319166001600160a01b0392909216919091179055565b6005805460ff1916600117905560405160069061071e906107b1565b604051809103906000f08015801561073a573d6000803e3d6000fd5b5081546001810183556000928352602090922090910180546001600160a01b0319166001600160a01b039092169190911790557f2bc40785c99c4e781dd859b9522dd9f5496ab1e483e22f281c46a85bafc3c6b43433610798610664565b6040516107a79392919061090e565b60405180910390a1565b610679806109ca83390190565b6000602082840312156107cf578081fd5b81356107da816109b1565b9392505050565b6000602082840312156107f2578081fd5b81516107da816109b1565b60006020828403121561080e578081fd5b5035919050565b6001600160a01b0391909116815260200190565b6001600160a01b03929092168252602082015260400190565b901515815260200190565b60208082526028908201527f6d757374206265206c656164657220666f72203630206d696e7574657320746f6040820152670818dbdb1b1958dd60c21b606082015260800190565b602080825260089082015267626574206d6f726560c01b604082015260600190565b6020808252601e908201527f596f75206172656e2774207468652070726576696f75732077696e6e65720000604082015260600190565b90815260200190565b9182526001600160a01b0316602082015260400190565b9283526001600160a01b03918216602084015216604082015260600190565b600082198211156109405761094061099b565b500190565b60008261096057634e487b7160e01b81526012600452602481fd5b500490565b600081600019048311821515161561097f5761097f61099b565b500290565b6000828210156109965761099661099b565b500390565b634e487b7160e01b600052601160045260246000fd5b6001600160a01b03811681146109c657600080fd5b5056fe608060405234801561001057600080fd5b50600380546001600160a01b03191633179055610647806100326000396000f3fe6080604052600436106100915760003560e01c8063a1bd721f11610059578063a1bd721f14610135578063af38d7571461014a578063c3fe3e281461016c578063de71bf0714610181578063fcc8f7931461019657610091565b80631a39d8ef146100935780632a035b6c146100be57806330840a3e146100de578063351c7d35146100fe5780634e71d92d14610120575b005b34801561009f57600080fd5b506100a86101b6565b6040516100b591906105a3565b60405180910390f35b3480156100ca57600080fd5b506100916100d936600461047c565b6101bc565b3480156100ea57600080fd5b506100916100f936600461049d565b610236565b34801561010a57600080fd5b506101136102ca565b6040516100b591906104c6565b34801561012c57600080fd5b506100916102ce565b34801561014157600080fd5b506100a861040f565b34801561015657600080fd5b5061015f610426565b6040516100b591906104da565b34801561017857600080fd5b50610113610436565b34801561018d57600080fd5b506100a8610445565b3480156101a257600080fd5b5061015f6101b136600461047c565b61044b565b60025481565b6003546001600160a01b031633146101ef5760405162461bcd60e51b81526004016101e69061051c565b60405180910390fd5b6001600160a01b0381166000908152602081905260409020805460ff191690556003805460ff60a01b1916600160a01b1790556001805461023091906105e4565b60015550565b6003546001600160a01b031633146102605760405162461bcd60e51b81526004016101e69061051c565b6001600160a01b03821660009081526020819052604090205460ff166102b5576001600160a01b0382166000908152602081905260409020805460ff1916600190811790915580546102b1916105ac565b6001555b806002546102c391906105ac565b6002555050565b3090565b6003546001600160a01b031633146102f85760405162461bcd60e51b81526004016101e69061051c565b600354600160a01b900460ff166103215760405162461bcd60e51b81526004016101e690610576565b3260009081526020819052604090205460ff166103505760405162461bcd60e51b81526004016101e6906104e5565b326000908152602081905260409020805460ff1916905561036f6102ca565b6001600160a01b03163161038161040f565b11156103ce57326108fc6103936102ca565b6001600160a01b0316319081150290604051600060405180830381858888f193505050501580156103c8573d6000803e3d6000fd5b5061040d565b326108fc6103da61040f565b6040518115909202916000818181858888f1935050505061040d5760405162461bcd60e51b81526004016101e690610551565b565b600060015460025461042191906105c4565b905090565b600354600160a01b900460ff1681565b6003546001600160a01b031681565b60015481565b60006020819052908152604090205460ff1681565b80356001600160a01b038116811461047757600080fd5b919050565b60006020828403121561048d578081fd5b61049682610460565b9392505050565b600080604083850312156104af578081fd5b6104b883610460565b946020939093013593505050565b6001600160a01b0391909116815260200190565b901515815260200190565b6020808252601b908201527f746865726573206e6f7468696e6720666f7220796f7520686572650000000000604082015260600190565b6020808252818101527f6f6e6c79207468652067616d6520697473656c662063616e20646f2074686973604082015260600190565b6020808252600b908201526a1cd95b990819985a5b195960aa1b604082015260600190565b60208082526013908201527219d85b59481a5cdb89dd081bdd995c881e595d606a1b604082015260600190565b90815260200190565b600082198211156105bf576105bf6105fb565b500190565b6000826105df57634e487b7160e01b81526012600452602481fd5b500490565b6000828210156105f6576105f66105fb565b500390565b634e487b7160e01b600052601160045260246000fdfea26469706673582212203e26493e3e8380de735f689eb137fb59e1baaecb194597da22cd7a6c67208b5d64736f6c63430008010033a2646970667358221220c23eb704051e454cdbe5a8549e4b41533d049c238cc7032bcb668d42ae0f026264736f6c63430008010033",
          "opcodes": "PUSH1 0x80 PUSH1 0x40 MSTORE CALLVALUE DUP1 ISZERO PUSH2 0x10 JUMPI PUSH1 0x0 DUP1 REVERT JUMPDEST POP PUSH1 0x0 DUP1 SLOAD CALLER PUSH1 0x1 PUSH1 0x1 PUSH1 0xA0 SHL SUB NOT SWAP2 DUP3 AND DUP2 OR DUP4 SSTORE PUSH1 0x1 DUP1 SLOAD SWAP1 SWAP3 AND OR SWAP1 SSTORE PUSH2 0x1078 SWAP1 DUP2 SWAP1 PUSH2 0x40 SWAP1 CODECOPY PUSH1 0x0 RETURN INVALID PUSH1 0x80 PUSH1 0x40 MSTORE PUSH1 0x4 CALLDATASIZE LT PUSH2 0xC2 JUMPI PUSH1 0x0 CALLDATALOAD PUSH1 0xE0 SHR DUP1 PUSH4 0x7801F842 GT PUSH2 0x7F JUMPI DUP1 PUSH4 0xAC4BD53A GT PUSH2 0x59 JUMPI DUP1 PUSH4 0xAC4BD53A EQ PUSH2 0x1BF JUMPI DUP1 PUSH4 0xD1C9A3FE EQ PUSH2 0x1D4 JUMPI DUP1 PUSH4 0xD504CB65 EQ PUSH2 0x1E9 JUMPI DUP1 PUSH4 0xF46901ED EQ PUSH2 0x1FE JUMPI PUSH2 0xC2 JUMP JUMPDEST DUP1 PUSH4 0x7801F842 EQ PUSH2 0x168 JUMPI DUP1 PUSH4 0x81597118 EQ PUSH2 0x18A JUMPI DUP1 PUSH4 0xA80AD9C8 EQ PUSH2 0x19F JUMPI PUSH2 0xC2 JUMP JUMPDEST DUP1 PUSH4 0x17E7E58 EQ PUSH2 0xC7 JUMPI DUP1 PUSH4 0x11610C25 EQ PUSH2 0xF2 JUMPI DUP1 PUSH4 0x473CA96C EQ PUSH2 0xFC JUMPI DUP1 PUSH4 0x5C6059EE EQ PUSH2 0x111 JUMPI DUP1 PUSH4 0x60B663BB EQ PUSH2 0x126 JUMPI DUP1 PUSH4 0x71ABA476 EQ PUSH2 0x148 JUMPI JUMPDEST PUSH1 0x0 DUP1 REVERT JUMPDEST CALLVALUE DUP1 ISZERO PUSH2 0xD3 JUMPI PUSH1 0x0 DUP1 REVERT JUMPDEST POP PUSH2 0xDC PUSH2 0x21E JUMP JUMPDEST PUSH1 0x40 MLOAD PUSH2 0xE9 SWAP2 SWAP1 PUSH2 0x815 JUMP JUMPDEST PUSH1 0x40 MLOAD DUP1 SWAP2 SUB SWAP1 RETURN JUMPDEST PUSH2 0xFA PUSH2 0x22D JUMP JUMPDEST STOP JUMPDEST CALLVALUE DUP1 ISZERO PUSH2 0x108 JUMPI PUSH1 0x0 DUP1 REVERT JUMPDEST POP PUSH2 0xFA PUSH2 0x442 JUMP JUMPDEST CALLVALUE DUP1 ISZERO PUSH2 0x11D JUMPI PUSH1 0x0 DUP1 REVERT JUMPDEST POP PUSH2 0xDC PUSH2 0x585 JUMP JUMPDEST CALLVALUE DUP1 ISZERO PUSH2 0x132 JUMPI PUSH1 0x0 DUP1 REVERT JUMPDEST POP PUSH2 0x13B PUSH2 0x594 JUMP JUMPDEST PUSH1 0x40 MLOAD PUSH2 0xE9 SWAP2 SWAP1 PUSH2 0x842 JUMP JUMPDEST CALLVALUE DUP1 ISZERO PUSH2 0x154 JUMPI PUSH1 0x0 DUP1 REVERT JUMPDEST POP PUSH2 0xFA PUSH2 0x163 CALLDATASIZE PUSH1 0x4 PUSH2 0x7FD JUMP JUMPDEST PUSH2 0x59D JUMP JUMPDEST CALLVALUE DUP1 ISZERO PUSH2 0x174 JUMPI PUSH1 0x0 DUP1 REVERT JUMPDEST POP PUSH2 0x17D PUSH2 0x5FA JUMP JUMPDEST PUSH1 0x40 MLOAD PUSH2 0xE9 SWAP2 SWAP1 PUSH2 0x8EE JUMP JUMPDEST CALLVALUE DUP1 ISZERO PUSH2 0x196 JUMPI PUSH1 0x0 DUP1 REVERT JUMPDEST POP PUSH2 0x17D PUSH2 0x600 JUMP JUMPDEST CALLVALUE DUP1 ISZERO PUSH2 0x1AB JUMPI PUSH1 0x0 DUP1 REVERT JUMPDEST POP PUSH2 0xDC PUSH2 0x1BA CALLDATASIZE PUSH1 0x4 PUSH2 0x7FD JUMP JUMPDEST PUSH2 0x62B JUMP JUMPDEST CALLVALUE DUP1 ISZERO PUSH2 0x1CB JUMPI PUSH1 0x0 DUP1 REVERT JUMPDEST POP PUSH2 0xDC PUSH2 0x655 JUMP JUMPDEST CALLVALUE DUP1 ISZERO PUSH2 0x1E0 JUMPI PUSH1 0x0 DUP1 REVERT JUMPDEST POP PUSH2 0xDC PUSH2 0x664 JUMP JUMPDEST CALLVALUE DUP1 ISZERO PUSH2 0x1F5 JUMPI PUSH1 0x0 DUP1 REVERT JUMPDEST POP PUSH2 0x17D PUSH2 0x6B0 JUMP JUMPDEST CALLVALUE DUP1 ISZERO PUSH2 0x20A JUMPI PUSH1 0x0 DUP1 REVERT JUMPDEST POP PUSH2 0xFA PUSH2 0x219 CALLDATASIZE PUSH1 0x4 PUSH2 0x7BE JUMP JUMPDEST PUSH2 0x6B6 JUMP JUMPDEST PUSH1 0x1 SLOAD PUSH1 0x1 PUSH1 0x1 PUSH1 0xA0 SHL SUB AND DUP2 JUMP JUMPDEST PUSH2 0x235 PUSH2 0x600 JUMP JUMPDEST CALLVALUE LT ISZERO PUSH2 0x25D JUMPI PUSH1 0x40 MLOAD PUSH3 0x461BCD PUSH1 0xE5 SHL DUP2 MSTORE PUSH1 0x4 ADD PUSH2 0x254 SWAP1 PUSH2 0x895 JUMP JUMPDEST PUSH1 0x40 MLOAD DUP1 SWAP2 SUB SWAP1 REVERT JUMPDEST PUSH1 0x5 SLOAD PUSH1 0xFF AND PUSH2 0x26F JUMPI PUSH2 0x26F PUSH2 0x702 JUMP JUMPDEST PUSH1 0x1 SLOAD CALLVALUE SWAP1 PUSH1 0x1 PUSH1 0x1 PUSH1 0xA0 SHL SUB AND PUSH2 0x8FC PUSH2 0x28C PUSH2 0x3E8 DUP5 PUSH2 0x945 JUMP JUMPDEST PUSH1 0x40 MLOAD DUP2 ISZERO SWAP1 SWAP3 MUL SWAP2 PUSH1 0x0 DUP2 DUP2 DUP2 DUP6 DUP9 DUP9 CALL SWAP4 POP POP POP POP ISZERO DUP1 ISZERO PUSH2 0x2B4 JUMPI RETURNDATASIZE PUSH1 0x0 DUP1 RETURNDATACOPY RETURNDATASIZE PUSH1 0x0 REVERT JUMPDEST POP PUSH1 0x0 PUSH2 0x2C2 PUSH1 0x14 DUP4 PUSH2 0x945 JUMP JUMPDEST PUSH2 0x2CD SWAP1 PUSH1 0x7 PUSH2 0x965 JUMP JUMPDEST SWAP1 POP PUSH2 0x2D7 PUSH2 0x664 JUMP JUMPDEST PUSH1 0x1 PUSH1 0x1 PUSH1 0xA0 SHL SUB AND PUSH4 0x30840A3E CALLER DUP4 PUSH1 0x40 MLOAD DUP4 PUSH4 0xFFFFFFFF AND PUSH1 0xE0 SHL DUP2 MSTORE PUSH1 0x4 ADD PUSH2 0x304 SWAP3 SWAP2 SWAP1 PUSH2 0x829 JUMP JUMPDEST PUSH1 0x0 PUSH1 0x40 MLOAD DUP1 DUP4 SUB DUP2 PUSH1 0x0 DUP8 DUP1 EXTCODESIZE ISZERO DUP1 ISZERO PUSH2 0x31E JUMPI PUSH1 0x0 DUP1 REVERT JUMPDEST POP GAS CALL ISZERO DUP1 ISZERO PUSH2 0x332 JUMPI RETURNDATASIZE PUSH1 0x0 DUP1 RETURNDATACOPY RETURNDATASIZE PUSH1 0x0 REVERT JUMPDEST POP POP POP POP PUSH2 0x33E PUSH2 0x664 JUMP JUMPDEST PUSH1 0x1 PUSH1 0x1 PUSH1 0xA0 SHL SUB AND PUSH4 0x351C7D35 PUSH1 0x40 MLOAD DUP2 PUSH4 0xFFFFFFFF AND PUSH1 0xE0 SHL DUP2 MSTORE PUSH1 0x4 ADD PUSH1 0x20 PUSH1 0x40 MLOAD DUP1 DUP4 SUB DUP2 DUP7 DUP1 EXTCODESIZE ISZERO DUP1 ISZERO PUSH2 0x376 JUMPI PUSH1 0x0 DUP1 REVERT JUMPDEST POP GAS STATICCALL ISZERO DUP1 ISZERO PUSH2 0x38A JUMPI RETURNDATASIZE PUSH1 0x0 DUP1 RETURNDATACOPY RETURNDATASIZE PUSH1 0x0 REVERT JUMPDEST POP POP POP POP PUSH1 0x40 MLOAD RETURNDATASIZE PUSH1 0x1F NOT PUSH1 0x1F DUP3 ADD AND DUP3 ADD DUP1 PUSH1 0x40 MSTORE POP DUP2 ADD SWAP1 PUSH2 0x3AE SWAP2 SWAP1 PUSH2 0x7E1 JUMP JUMPDEST PUSH1 0x1 PUSH1 0x1 PUSH1 0xA0 SHL SUB AND PUSH2 0x8FC DUP3 SWAP1 DUP2 ISZERO MUL SWAP1 PUSH1 0x40 MLOAD PUSH1 0x0 PUSH1 0x40 MLOAD DUP1 DUP4 SUB DUP2 DUP6 DUP9 DUP9 CALL SWAP4 POP POP POP POP ISZERO DUP1 ISZERO PUSH2 0x3E6 JUMPI RETURNDATASIZE PUSH1 0x0 DUP1 RETURNDATACOPY RETURNDATASIZE PUSH1 0x0 REVERT JUMPDEST POP PUSH1 0x3 DUP3 SWAP1 SSTORE TIMESTAMP PUSH1 0x4 SSTORE PUSH1 0x2 DUP1 SLOAD PUSH1 0x1 PUSH1 0x1 PUSH1 0xA0 SHL SUB NOT AND CALLER SWAP1 DUP2 OR SWAP1 SWAP2 SSTORE PUSH1 0x40 MLOAD PUSH32 0x189BA8D04AB0C61F5498AE9BD2B2295CD60D6FC895CAC86FEEB1EE28D1B782D2 SWAP2 PUSH2 0x436 SWAP2 DUP6 SWAP2 SWAP1 PUSH2 0x8F7 JUMP JUMPDEST PUSH1 0x40 MLOAD DUP1 SWAP2 SUB SWAP1 LOG1 POP POP JUMP JUMPDEST PUSH1 0x4 SLOAD PUSH2 0x451 SWAP1 PUSH2 0xE10 PUSH2 0x92D JUMP JUMPDEST TIMESTAMP LT ISZERO PUSH2 0x470 JUMPI PUSH1 0x40 MLOAD PUSH3 0x461BCD PUSH1 0xE5 SHL DUP2 MSTORE PUSH1 0x4 ADD PUSH2 0x254 SWAP1 PUSH2 0x84D JUMP JUMPDEST PUSH1 0x2 SLOAD PUSH1 0x1 PUSH1 0x1 PUSH1 0xA0 SHL SUB AND CALLER EQ PUSH2 0x487 JUMPI PUSH1 0x0 DUP1 REVERT JUMPDEST PUSH32 0x92BBA05F468E20892603AE1A108C6516B3F0D4884204C513D01527989868ACD5 SELFBALANCE CALLER PUSH1 0x40 MLOAD PUSH2 0x4B8 SWAP3 SWAP2 SWAP1 PUSH2 0x8F7 JUMP JUMPDEST PUSH1 0x40 MLOAD DUP1 SWAP2 SUB SWAP1 LOG1 PUSH1 0x40 MLOAD CALLER SWAP1 SELFBALANCE DUP1 ISZERO PUSH2 0x8FC MUL SWAP2 PUSH1 0x0 DUP2 DUP2 DUP2 DUP6 DUP9 DUP9 CALL SWAP4 POP POP POP POP ISZERO DUP1 ISZERO PUSH2 0x4EC JUMPI RETURNDATASIZE PUSH1 0x0 DUP1 RETURNDATACOPY RETURNDATASIZE PUSH1 0x0 REVERT JUMPDEST POP PUSH2 0x4F5 PUSH2 0x664 JUMP JUMPDEST PUSH1 0x1 PUSH1 0x1 PUSH1 0xA0 SHL SUB AND PUSH4 0x2A035B6C CALLER PUSH1 0x40 MLOAD DUP3 PUSH4 0xFFFFFFFF AND PUSH1 0xE0 SHL DUP2 MSTORE PUSH1 0x4 ADD PUSH2 0x520 SWAP2 SWAP1 PUSH2 0x815 JUMP JUMPDEST PUSH1 0x0 PUSH1 0x40 MLOAD DUP1 DUP4 SUB DUP2 PUSH1 0x0 DUP8 DUP1 EXTCODESIZE ISZERO DUP1 ISZERO PUSH2 0x53A JUMPI PUSH1 0x0 DUP1 REVERT JUMPDEST POP GAS CALL ISZERO DUP1 ISZERO PUSH2 0x54E JUMPI RETURNDATASIZE PUSH1 0x0 DUP1 RETURNDATACOPY RETURNDATASIZE PUSH1 0x0 REVERT JUMPDEST POP POP PUSH1 0x5 DUP1 SLOAD PUSH1 0xFF NOT AND SWAP1 SSTORE POP POP PUSH1 0x0 PUSH1 0x3 DUP2 SWAP1 SSTORE DUP1 SLOAD CALLER PUSH1 0x1 PUSH1 0x1 PUSH1 0xA0 SHL SUB NOT SWAP2 DUP3 AND DUP2 OR SWAP1 SWAP3 SSTORE PUSH1 0x1 DUP1 SLOAD SWAP1 SWAP2 AND SWAP1 SWAP2 OR SWAP1 SSTORE JUMP JUMPDEST PUSH1 0x0 SLOAD PUSH1 0x1 PUSH1 0x1 PUSH1 0xA0 SHL SUB AND DUP2 JUMP JUMPDEST PUSH1 0x5 SLOAD PUSH1 0xFF AND DUP2 JUMP JUMPDEST PUSH2 0x5A5 PUSH2 0x664 JUMP JUMPDEST PUSH1 0x1 PUSH1 0x1 PUSH1 0xA0 SHL SUB AND PUSH4 0x4E71D92D PUSH1 0x40 MLOAD DUP2 PUSH4 0xFFFFFFFF AND PUSH1 0xE0 SHL DUP2 MSTORE PUSH1 0x4 ADD PUSH1 0x0 PUSH1 0x40 MLOAD DUP1 DUP4 SUB DUP2 PUSH1 0x0 DUP8 DUP1 EXTCODESIZE ISZERO DUP1 ISZERO PUSH2 0x5DF JUMPI PUSH1 0x0 DUP1 REVERT JUMPDEST POP GAS CALL ISZERO DUP1 ISZERO PUSH2 0x5F3 JUMPI RETURNDATASIZE PUSH1 0x0 DUP1 RETURNDATACOPY RETURNDATASIZE PUSH1 0x0 REVERT JUMPDEST POP POP POP POP POP JUMP JUMPDEST PUSH1 0x4 SLOAD DUP2 JUMP JUMPDEST PUSH1 0x5 SLOAD PUSH1 0x0 SWAP1 PUSH1 0xFF AND ISZERO PUSH2 0x623 JUMPI PUSH1 0x3 SLOAD PUSH2 0x61C SWAP1 PUSH1 0x1 PUSH2 0x92D JUMP JUMPDEST SWAP1 POP PUSH2 0x628 JUMP JUMPDEST POP PUSH2 0x3E8 JUMPDEST SWAP1 JUMP JUMPDEST PUSH1 0x6 DUP2 DUP2 SLOAD DUP2 LT PUSH2 0x63B JUMPI PUSH1 0x0 DUP1 REVERT JUMPDEST PUSH1 0x0 SWAP2 DUP3 MSTORE PUSH1 0x20 SWAP1 SWAP2 KECCAK256 ADD SLOAD PUSH1 0x1 PUSH1 0x1 PUSH1 0xA0 SHL SUB AND SWAP1 POP DUP2 JUMP JUMPDEST PUSH1 0x2 SLOAD PUSH1 0x1 PUSH1 0x1 PUSH1 0xA0 SHL SUB AND DUP2 JUMP JUMPDEST PUSH1 0x6 DUP1 SLOAD PUSH1 0x0 SWAP2 SWAP1 PUSH2 0x678 SWAP1 PUSH1 0x1 SWAP1 PUSH2 0x984 JUMP JUMPDEST DUP2 SLOAD DUP2 LT PUSH2 0x696 JUMPI PUSH4 0x4E487B71 PUSH1 0xE0 SHL PUSH1 0x0 MSTORE PUSH1 0x32 PUSH1 0x4 MSTORE PUSH1 0x24 PUSH1 0x0 REVERT JUMPDEST PUSH1 0x0 SWAP2 DUP3 MSTORE PUSH1 0x20 SWAP1 SWAP2 KECCAK256 ADD SLOAD PUSH1 0x1 PUSH1 0x1 PUSH1 0xA0 SHL SUB AND SWAP1 POP SWAP1 JUMP JUMPDEST PUSH1 0x3 SLOAD DUP2 JUMP JUMPDEST PUSH1 0x0 SLOAD PUSH1 0x1 PUSH1 0x1 PUSH1 0xA0 SHL SUB AND CALLER EQ PUSH2 0x6E0 JUMPI PUSH1 0x40 MLOAD PUSH3 0x461BCD PUSH1 0xE5 SHL DUP2 MSTORE PUSH1 0x4 ADD PUSH2 0x254 SWAP1 PUSH2 0x8B7 JUMP JUMPDEST PUSH1 0x1 DUP1 SLOAD PUSH1 0x1 PUSH1 0x1 PUSH1 0xA0 SHL SUB NOT AND PUSH1 0x1 PUSH1 0x1 PUSH1 0xA0 SHL SUB SWAP3 SWAP1 SWAP3 AND SWAP2 SWAP1 SWAP2 OR SWAP1 SSTORE JUMP JUMPDEST PUSH1 0x5 DUP1 SLOAD PUSH1 0xFF NOT AND PUSH1 0x1 OR SWAP1 SSTORE PUSH1 0x40 MLOAD PUSH1 0x6 SWAP1 PUSH2 0x71E SWAP1 PUSH2 0x7B1 JUMP JUMPDEST PUSH1 0x40 MLOAD DUP1 SWAP2 SUB SWAP1 PUSH1 0x0 CREATE DUP1 ISZERO DUP1 ISZERO PUSH2 0x73A JUMPI RETURNDATASIZE PUSH1 0x0 DUP1 RETURNDATACOPY RETURNDATASIZE PUSH1 0x0 REVERT JUMPDEST POP DUP2 SLOAD PUSH1 0x1 DUP2 ADD DUP4 SSTORE PUSH1 0x0 SWAP3 DUP4 MSTORE PUSH1 0x20 SWAP1 SWAP3 KECCAK256 SWAP1 SWAP2 ADD DUP1 SLOAD PUSH1 0x1 PUSH1 0x1 PUSH1 0xA0 SHL SUB NOT AND PUSH1 0x1 PUSH1 0x1 PUSH1 0xA0 SHL SUB SWAP1 SWAP3 AND SWAP2 SWAP1 SWAP2 OR SWAP1 SSTORE PUSH32 0x2BC40785C99C4E781DD859B9522DD9F5496AB1E483E22F281C46A85BAFC3C6B4 CALLVALUE CALLER PUSH2 0x798 PUSH2 0x664 JUMP JUMPDEST PUSH1 0x40 MLOAD PUSH2 0x7A7 SWAP4 SWAP3 SWAP2 SWAP1 PUSH2 0x90E JUMP JUMPDEST PUSH1 0x40 MLOAD DUP1 SWAP2 SUB SWAP1 LOG1 JUMP JUMPDEST PUSH2 0x679 DUP1 PUSH2 0x9CA DUP4 CODECOPY ADD SWAP1 JUMP JUMPDEST PUSH1 0x0 PUSH1 0x20 DUP3 DUP5 SUB SLT ISZERO PUSH2 0x7CF JUMPI DUP1 DUP2 REVERT JUMPDEST DUP2 CALLDATALOAD PUSH2 0x7DA DUP2 PUSH2 0x9B1 JUMP JUMPDEST SWAP4 SWAP3 POP POP POP JUMP JUMPDEST PUSH1 0x0 PUSH1 0x20 DUP3 DUP5 SUB SLT ISZERO PUSH2 0x7F2 JUMPI DUP1 DUP2 REVERT JUMPDEST DUP2 MLOAD PUSH2 0x7DA DUP2 PUSH2 0x9B1 JUMP JUMPDEST PUSH1 0x0 PUSH1 0x20 DUP3 DUP5 SUB SLT ISZERO PUSH2 0x80E JUMPI DUP1 DUP2 REVERT JUMPDEST POP CALLDATALOAD SWAP2 SWAP1 POP JUMP JUMPDEST PUSH1 0x1 PUSH1 0x1 PUSH1 0xA0 SHL SUB SWAP2 SWAP1 SWAP2 AND DUP2 MSTORE PUSH1 0x20 ADD SWAP1 JUMP JUMPDEST PUSH1 0x1 PUSH1 0x1 PUSH1 0xA0 SHL SUB SWAP3 SWAP1 SWAP3 AND DUP3 MSTORE PUSH1 0x20 DUP3 ADD MSTORE PUSH1 0x40 ADD SWAP1 JUMP JUMPDEST SWAP1 ISZERO ISZERO DUP2 MSTORE PUSH1 0x20 ADD SWAP1 JUMP JUMPDEST PUSH1 0x20 DUP1 DUP3 MSTORE PUSH1 0x28 SWAP1 DUP3 ADD MSTORE PUSH32 0x6D757374206265206C656164657220666F72203630206D696E7574657320746F PUSH1 0x40 DUP3 ADD MSTORE PUSH8 0x818DBDB1B1958DD PUSH1 0xC2 SHL PUSH1 0x60 DUP3 ADD MSTORE PUSH1 0x80 ADD SWAP1 JUMP JUMPDEST PUSH1 0x20 DUP1 DUP3 MSTORE PUSH1 0x8 SWAP1 DUP3 ADD MSTORE PUSH8 0x626574206D6F7265 PUSH1 0xC0 SHL PUSH1 0x40 DUP3 ADD MSTORE PUSH1 0x60 ADD SWAP1 JUMP JUMPDEST PUSH1 0x20 DUP1 DUP3 MSTORE PUSH1 0x1E SWAP1 DUP3 ADD MSTORE PUSH32 0x596F75206172656E2774207468652070726576696F75732077696E6E65720000 PUSH1 0x40 DUP3 ADD MSTORE PUSH1 0x60 ADD SWAP1 JUMP JUMPDEST SWAP1 DUP2 MSTORE PUSH1 0x20 ADD SWAP1 JUMP JUMPDEST SWAP2 DUP3 MSTORE PUSH1 0x1 PUSH1 0x1 PUSH1 0xA0 SHL SUB AND PUSH1 0x20 DUP3 ADD MSTORE PUSH1 0x40 ADD SWAP1 JUMP JUMPDEST SWAP3 DUP4 MSTORE PUSH1 0x1 PUSH1 0x1 PUSH1 0xA0 SHL SUB SWAP2 DUP3 AND PUSH1 0x20 DUP5 ADD MSTORE AND PUSH1 0x40 DUP3 ADD MSTORE PUSH1 0x60 ADD SWAP1 JUMP JUMPDEST PUSH1 0x0 DUP3 NOT DUP3 GT ISZERO PUSH2 0x940 JUMPI PUSH2 0x940 PUSH2 0x99B JUMP JUMPDEST POP ADD SWAP1 JUMP JUMPDEST PUSH1 0x0 DUP3 PUSH2 0x960 JUMPI PUSH4 0x4E487B71 PUSH1 0xE0 SHL DUP2 MSTORE PUSH1 0x12 PUSH1 0x4 MSTORE PUSH1 0x24 DUP2 REVERT JUMPDEST POP DIV SWAP1 JUMP JUMPDEST PUSH1 0x0 DUP2 PUSH1 0x0 NOT DIV DUP4 GT DUP3 ISZERO ISZERO AND ISZERO PUSH2 0x97F JUMPI PUSH2 0x97F PUSH2 0x99B JUMP JUMPDEST POP MUL SWAP1 JUMP JUMPDEST PUSH1 0x0 DUP3 DUP3 LT ISZERO PUSH2 0x996 JUMPI PUSH2 0x996 PUSH2 0x99B JUMP JUMPDEST POP SUB SWAP1 JUMP JUMPDEST PUSH4 0x4E487B71 PUSH1 0xE0 SHL PUSH1 0x0 MSTORE PUSH1 0x11 PUSH1 0x4 MSTORE PUSH1 0x24 PUSH1 0x0 REVERT JUMPDEST PUSH1 0x1 PUSH1 0x1 PUSH1 0xA0 SHL SUB DUP2 AND DUP2 EQ PUSH2 0x9C6 JUMPI PUSH1 0x0 DUP1 REVERT JUMPDEST POP JUMP INVALID PUSH1 0x80 PUSH1 0x40 MSTORE CALLVALUE DUP1 ISZERO PUSH2 0x10 JUMPI PUSH1 0x0 DUP1 REVERT JUMPDEST POP PUSH1 0x3 DUP1 SLOAD PUSH1 0x1 PUSH1 0x1 PUSH1 0xA0 SHL SUB NOT AND CALLER OR SWAP1 SSTORE PUSH2 0x647 DUP1 PUSH2 0x32 PUSH1 0x0 CODECOPY PUSH1 0x0 RETURN INVALID PUSH1 0x80 PUSH1 0x40 MSTORE PUSH1 0x4 CALLDATASIZE LT PUSH2 0x91 JUMPI PUSH1 0x0 CALLDATALOAD PUSH1 0xE0 SHR DUP1 PUSH4 0xA1BD721F GT PUSH2 0x59 JUMPI DUP1 PUSH4 0xA1BD721F EQ PUSH2 0x135 JUMPI DUP1 PUSH4 0xAF38D757 EQ PUSH2 0x14A JUMPI DUP1 PUSH4 0xC3FE3E28 EQ PUSH2 0x16C JUMPI DUP1 PUSH4 0xDE71BF07 EQ PUSH2 0x181 JUMPI DUP1 PUSH4 0xFCC8F793 EQ PUSH2 0x196 JUMPI PUSH2 0x91 JUMP JUMPDEST DUP1 PUSH4 0x1A39D8EF EQ PUSH2 0x93 JUMPI DUP1 PUSH4 0x2A035B6C EQ PUSH2 0xBE JUMPI DUP1 PUSH4 0x30840A3E EQ PUSH2 0xDE JUMPI DUP1 PUSH4 0x351C7D35 EQ PUSH2 0xFE JUMPI DUP1 PUSH4 0x4E71D92D EQ PUSH2 0x120 JUMPI JUMPDEST STOP JUMPDEST CALLVALUE DUP1 ISZERO PUSH2 0x9F JUMPI PUSH1 0x0 DUP1 REVERT JUMPDEST POP PUSH2 0xA8 PUSH2 0x1B6 JUMP JUMPDEST PUSH1 0x40 MLOAD PUSH2 0xB5 SWAP2 SWAP1 PUSH2 0x5A3 JUMP JUMPDEST PUSH1 0x40 MLOAD DUP1 SWAP2 SUB SWAP1 RETURN JUMPDEST CALLVALUE DUP1 ISZERO PUSH2 0xCA JUMPI PUSH1 0x0 DUP1 REVERT JUMPDEST POP PUSH2 0x91 PUSH2 0xD9 CALLDATASIZE PUSH1 0x4 PUSH2 0x47C JUMP JUMPDEST PUSH2 0x1BC JUMP JUMPDEST CALLVALUE DUP1 ISZERO PUSH2 0xEA JUMPI PUSH1 0x0 DUP1 REVERT JUMPDEST POP PUSH2 0x91 PUSH2 0xF9 CALLDATASIZE PUSH1 0x4 PUSH2 0x49D JUMP JUMPDEST PUSH2 0x236 JUMP JUMPDEST CALLVALUE DUP1 ISZERO PUSH2 0x10A JUMPI PUSH1 0x0 DUP1 REVERT JUMPDEST POP PUSH2 0x113 PUSH2 0x2CA JUMP JUMPDEST PUSH1 0x40 MLOAD PUSH2 0xB5 SWAP2 SWAP1 PUSH2 0x4C6 JUMP JUMPDEST CALLVALUE DUP1 ISZERO PUSH2 0x12C JUMPI PUSH1 0x0 DUP1 REVERT JUMPDEST POP PUSH2 0x91 PUSH2 0x2CE JUMP JUMPDEST CALLVALUE DUP1 ISZERO PUSH2 0x141 JUMPI PUSH1 0x0 DUP1 REVERT JUMPDEST POP PUSH2 0xA8 PUSH2 0x40F JUMP JUMPDEST CALLVALUE DUP1 ISZERO PUSH2 0x156 JUMPI PUSH1 0x0 DUP1 REVERT JUMPDEST POP PUSH2 0x15F PUSH2 0x426 JUMP JUMPDEST PUSH1 0x40 MLOAD PUSH2 0xB5 SWAP2 SWAP1 PUSH2 0x4DA JUMP JUMPDEST CALLVALUE DUP1 ISZERO PUSH2 0x178 JUMPI PUSH1 0x0 DUP1 REVERT JUMPDEST POP PUSH2 0x113 PUSH2 0x436 JUMP JUMPDEST CALLVALUE DUP1 ISZERO PUSH2 0x18D JUMPI PUSH1 0x0 DUP1 REVERT JUMPDEST POP PUSH2 0xA8 PUSH2 0x445 JUMP JUMPDEST CALLVALUE DUP1 ISZERO PUSH2 0x1A2 JUMPI PUSH1 0x0 DUP1 REVERT JUMPDEST POP PUSH2 0x15F PUSH2 0x1B1 CALLDATASIZE PUSH1 0x4 PUSH2 0x47C JUMP JUMPDEST PUSH2 0x44B JUMP JUMPDEST PUSH1 0x2 SLOAD DUP2 JUMP JUMPDEST PUSH1 0x3 SLOAD PUSH1 0x1 PUSH1 0x1 PUSH1 0xA0 SHL SUB AND CALLER EQ PUSH2 0x1EF JUMPI PUSH1 0x40 MLOAD PUSH3 0x461BCD PUSH1 0xE5 SHL DUP2 MSTORE PUSH1 0x4 ADD PUSH2 0x1E6 SWAP1 PUSH2 0x51C JUMP JUMPDEST PUSH1 0x40 MLOAD DUP1 SWAP2 SUB SWAP1 REVERT JUMPDEST PUSH1 0x1 PUSH1 0x1 PUSH1 0xA0 SHL SUB DUP2 AND PUSH1 0x0 SWAP1 DUP2 MSTORE PUSH1 0x20 DUP2 SWAP1 MSTORE PUSH1 0x40 SWAP1 KECCAK256 DUP1 SLOAD PUSH1 0xFF NOT AND SWAP1 SSTORE PUSH1 0x3 DUP1 SLOAD PUSH1 0xFF PUSH1 0xA0 SHL NOT AND PUSH1 0x1 PUSH1 0xA0 SHL OR SWAP1 SSTORE PUSH1 0x1 DUP1 SLOAD PUSH2 0x230 SWAP2 SWAP1 PUSH2 0x5E4 JUMP JUMPDEST PUSH1 0x1 SSTORE POP JUMP JUMPDEST PUSH1 0x3 SLOAD PUSH1 0x1 PUSH1 0x1 PUSH1 0xA0 SHL SUB AND CALLER EQ PUSH2 0x260 JUMPI PUSH1 0x40 MLOAD PUSH3 0x461BCD PUSH1 0xE5 SHL DUP2 MSTORE PUSH1 0x4 ADD PUSH2 0x1E6 SWAP1 PUSH2 0x51C JUMP JUMPDEST PUSH1 0x1 PUSH1 0x1 PUSH1 0xA0 SHL SUB DUP3 AND PUSH1 0x0 SWAP1 DUP2 MSTORE PUSH1 0x20 DUP2 SWAP1 MSTORE PUSH1 0x40 SWAP1 KECCAK256 SLOAD PUSH1 0xFF AND PUSH2 0x2B5 JUMPI PUSH1 0x1 PUSH1 0x1 PUSH1 0xA0 SHL SUB DUP3 AND PUSH1 0x0 SWAP1 DUP2 MSTORE PUSH1 0x20 DUP2 SWAP1 MSTORE PUSH1 0x40 SWAP1 KECCAK256 DUP1 SLOAD PUSH1 0xFF NOT AND PUSH1 0x1 SWAP1 DUP2 OR SWAP1 SWAP2 SSTORE DUP1 SLOAD PUSH2 0x2B1 SWAP2 PUSH2 0x5AC JUMP JUMPDEST PUSH1 0x1 SSTORE JUMPDEST DUP1 PUSH1 0x2 SLOAD PUSH2 0x2C3 SWAP2 SWAP1 PUSH2 0x5AC JUMP JUMPDEST PUSH1 0x2 SSTORE POP POP JUMP JUMPDEST ADDRESS SWAP1 JUMP JUMPDEST PUSH1 0x3 SLOAD PUSH1 0x1 PUSH1 0x1 PUSH1 0xA0 SHL SUB AND CALLER EQ PUSH2 0x2F8 JUMPI PUSH1 0x40 MLOAD PUSH3 0x461BCD PUSH1 0xE5 SHL DUP2 MSTORE PUSH1 0x4 ADD PUSH2 0x1E6 SWAP1 PUSH2 0x51C JUMP JUMPDEST PUSH1 0x3 SLOAD PUSH1 0x1 PUSH1 0xA0 SHL SWAP1 DIV PUSH1 0xFF AND PUSH2 0x321 JUMPI PUSH1 0x40 MLOAD PUSH3 0x461BCD PUSH1 0xE5 SHL DUP2 MSTORE PUSH1 0x4 ADD PUSH2 0x1E6 SWAP1 PUSH2 0x576 JUMP JUMPDEST ORIGIN PUSH1 0x0 SWAP1 DUP2 MSTORE PUSH1 0x20 DUP2 SWAP1 MSTORE PUSH1 0x40 SWAP1 KECCAK256 SLOAD PUSH1 0xFF AND PUSH2 0x350 JUMPI PUSH1 0x40 MLOAD PUSH3 0x461BCD PUSH1 0xE5 SHL DUP2 MSTORE PUSH1 0x4 ADD PUSH2 0x1E6 SWAP1 PUSH2 0x4E5 JUMP JUMPDEST ORIGIN PUSH1 0x0 SWAP1 DUP2 MSTORE PUSH1 0x20 DUP2 SWAP1 MSTORE PUSH1 0x40 SWAP1 KECCAK256 DUP1 SLOAD PUSH1 0xFF NOT AND SWAP1 SSTORE PUSH2 0x36F PUSH2 0x2CA JUMP JUMPDEST PUSH1 0x1 PUSH1 0x1 PUSH1 0xA0 SHL SUB AND BALANCE PUSH2 0x381 PUSH2 0x40F JUMP JUMPDEST GT ISZERO PUSH2 0x3CE JUMPI ORIGIN PUSH2 0x8FC PUSH2 0x393 PUSH2 0x2CA JUMP JUMPDEST PUSH1 0x1 PUSH1 0x1 PUSH1 0xA0 SHL SUB AND BALANCE SWAP1 DUP2 ISZERO MUL SWAP1 PUSH1 0x40 MLOAD PUSH1 0x0 PUSH1 0x40 MLOAD DUP1 DUP4 SUB DUP2 DUP6 DUP9 DUP9 CALL SWAP4 POP POP POP POP ISZERO DUP1 ISZERO PUSH2 0x3C8 JUMPI RETURNDATASIZE PUSH1 0x0 DUP1 RETURNDATACOPY RETURNDATASIZE PUSH1 0x0 REVERT JUMPDEST POP PUSH2 0x40D JUMP JUMPDEST ORIGIN PUSH2 0x8FC PUSH2 0x3DA PUSH2 0x40F JUMP JUMPDEST PUSH1 0x40 MLOAD DUP2 ISZERO SWAP1 SWAP3 MUL SWAP2 PUSH1 0x0 DUP2 DUP2 DUP2 DUP6 DUP9 DUP9 CALL SWAP4 POP POP POP POP PUSH2 0x40D JUMPI PUSH1 0x40 MLOAD PUSH3 0x461BCD PUSH1 0xE5 SHL DUP2 MSTORE PUSH1 0x4 ADD PUSH2 0x1E6 SWAP1 PUSH2 0x551 JUMP JUMPDEST JUMP JUMPDEST PUSH1 0x0 PUSH1 0x1 SLOAD PUSH1 0x2 SLOAD PUSH2 0x421 SWAP2 SWAP1 PUSH2 0x5C4 JUMP JUMPDEST SWAP1 POP SWAP1 JUMP JUMPDEST PUSH1 0x3 SLOAD PUSH1 0x1 PUSH1 0xA0 SHL SWAP1 DIV PUSH1 0xFF AND DUP2 JUMP JUMPDEST PUSH1 0x3 SLOAD PUSH1 0x1 PUSH1 0x1 PUSH1 0xA0 SHL SUB AND DUP2 JUMP JUMPDEST PUSH1 0x1 SLOAD DUP2 JUMP JUMPDEST PUSH1 0x0 PUSH1 0x20 DUP2 SWAP1 MSTORE SWAP1 DUP2 MSTORE PUSH1 0x40 SWAP1 KECCAK256 SLOAD PUSH1 0xFF AND DUP2 JUMP JUMPDEST DUP1 CALLDATALOAD PUSH1 0x1 PUSH1 0x1 PUSH1 0xA0 SHL SUB DUP2 AND DUP2 EQ PUSH2 0x477 JUMPI PUSH1 0x0 DUP1 REVERT JUMPDEST SWAP2 SWAP1 POP JUMP JUMPDEST PUSH1 0x0 PUSH1 0x20 DUP3 DUP5 SUB SLT ISZERO PUSH2 0x48D JUMPI DUP1 DUP2 REVERT JUMPDEST PUSH2 0x496 DUP3 PUSH2 0x460 JUMP JUMPDEST SWAP4 SWAP3 POP POP POP JUMP JUMPDEST PUSH1 0x0 DUP1 PUSH1 0x40 DUP4 DUP6 SUB SLT ISZERO PUSH2 0x4AF JUMPI DUP1 DUP2 REVERT JUMPDEST PUSH2 0x4B8 DUP4 PUSH2 0x460 JUMP JUMPDEST SWAP5 PUSH1 0x20 SWAP4 SWAP1 SWAP4 ADD CALLDATALOAD SWAP4 POP POP POP JUMP JUMPDEST PUSH1 0x1 PUSH1 0x1 PUSH1 0xA0 SHL SUB SWAP2 SWAP1 SWAP2 AND DUP2 MSTORE PUSH1 0x20 ADD SWAP1 JUMP JUMPDEST SWAP1 ISZERO ISZERO DUP2 MSTORE PUSH1 0x20 ADD SWAP1 JUMP JUMPDEST PUSH1 0x20 DUP1 DUP3 MSTORE PUSH1 0x1B SWAP1 DUP3 ADD MSTORE PUSH32 0x746865726573206E6F7468696E6720666F7220796F7520686572650000000000 PUSH1 0x40 DUP3 ADD MSTORE PUSH1 0x60 ADD SWAP1 JUMP JUMPDEST PUSH1 0x20 DUP1 DUP3 MSTORE DUP2 DUP2 ADD MSTORE PUSH32 0x6F6E6C79207468652067616D6520697473656C662063616E20646F2074686973 PUSH1 0x40 DUP3 ADD MSTORE PUSH1 0x60 ADD SWAP1 JUMP JUMPDEST PUSH1 0x20 DUP1 DUP3 MSTORE PUSH1 0xB SWAP1 DUP3 ADD MSTORE PUSH11 0x1CD95B990819985A5B1959 PUSH1 0xAA SHL PUSH1 0x40 DUP3 ADD MSTORE PUSH1 0x60 ADD SWAP1 JUMP JUMPDEST PUSH1 0x20 DUP1 DUP3 MSTORE PUSH1 0x13 SWAP1 DUP3 ADD MSTORE PUSH19 0x19D85B59481A5CDB89DD081BDD995C881E595D PUSH1 0x6A SHL PUSH1 0x40 DUP3 ADD MSTORE PUSH1 0x60 ADD SWAP1 JUMP JUMPDEST SWAP1 DUP2 MSTORE PUSH1 0x20 ADD SWAP1 JUMP JUMPDEST PUSH1 0x0 DUP3 NOT DUP3 GT ISZERO PUSH2 0x5BF JUMPI PUSH2 0x5BF PUSH2 0x5FB JUMP JUMPDEST POP ADD SWAP1 JUMP JUMPDEST PUSH1 0x0 DUP3 PUSH2 0x5DF JUMPI PUSH4 0x4E487B71 PUSH1 0xE0 SHL DUP2 MSTORE PUSH1 0x12 PUSH1 0x4 MSTORE PUSH1 0x24 DUP2 REVERT JUMPDEST POP DIV SWAP1 JUMP JUMPDEST PUSH1 0x0 DUP3 DUP3 LT ISZERO PUSH2 0x5F6 JUMPI PUSH2 0x5F6 PUSH2 0x5FB JUMP JUMPDEST POP SUB SWAP1 JUMP JUMPDEST PUSH4 0x4E487B71 PUSH1 0xE0 SHL PUSH1 0x0 MSTORE PUSH1 0x11 PUSH1 0x4 MSTORE PUSH1 0x24 PUSH1 0x0 REVERT INVALID LOG2 PUSH5 0x6970667358 0x22 SLT KECCAK256 RETURNDATACOPY 0x26 0x49 RETURNDATACOPY RETURNDATACOPY DUP4 DUP1 0xDE PUSH20 0x5F689EB137FB59E1BAAECB194597DA22CD7A6C67 KECCAK256 DUP12 0x5D PUSH5 0x736F6C6343 STOP ADDMOD ADD STOP CALLER LOG2 PUSH5 0x6970667358 0x22 SLT KECCAK256 0xC2 RETURNDATACOPY 0xB7 DIV SDIV 0x1E GASLIMIT 0x4C 0xDB 0xE5 0xA8 SLOAD SWAP15 0x4B COINBASE MSTORE8 RETURNDATASIZE DIV SWAP13 0x23 DUP13 0xC7 SUB 0x2B 0xCB PUSH7 0x8D42AE0F026264 PUSH20 0x6F6C634300080100330000000000000000000000 "
        },
        "methodIdentifiers": {
          "bet()": "11610c25",
          "claimUBI(uint256)": "71aba476",
          "currentBet()": "d504cb65",
          "currentGame()": "60b663bb",
          "currentLeader()": "ac4bd53a",
          "currentUBI()": "d1c9a3fe",
          "feeTo()": "017e7e58",
          "lastBet()": "7801f842",
          "nextMinimumBet()": "81597118",
          "previousWinner()": "5c6059ee",
          "setFeeTo(address)": "f46901ed",
          "ubis(uint256)": "a80ad9c8",
          "win()": "473ca96c"
        }
      }
    }
  }
}